{
  "_format": "hh-sol-artifact-1",
  "contractName": "Transactions",
  "sourceName": "contracts/Transactions.sol",
  "abi": [
    {
      "anonymous": false,
      "inputs": [
        {
          "indexed": false,
          "internalType": "address",
          "name": "from",
          "type": "address"
        },
        {
          "indexed": false,
          "internalType": "address",
          "name": "receiver",
          "type": "address"
        },
        {
          "indexed": false,
          "internalType": "uint256",
          "name": "amount",
          "type": "uint256"
        },
        {
          "indexed": false,
          "internalType": "string",
          "name": "message",
          "type": "string"
        },
        {
          "indexed": false,
          "internalType": "uint256",
          "name": "timestamp",
          "type": "uint256"
        },
        {
          "indexed": false,
          "internalType": "string",
          "name": "keyword",
          "type": "string"
        }
      ],
      "name": "Transfer",
      "type": "event"
    },
    {
      "inputs": [
        {
          "internalType": "address payable",
          "name": "receiver",
          "type": "address"
        },
        {
          "internalType": "uint256",
          "name": "amount",
          "type": "uint256"
        },
        {
          "internalType": "string",
          "name": "message",
          "type": "string"
        },
        {
          "internalType": "string",
          "name": "keyword",
          "type": "string"
        }
      ],
      "name": "addToBlockchain",
      "outputs": [],
      "stateMutability": "nonpayable",
      "type": "function"
    },
    {
      "inputs": [],
      "name": "getAllBlockchains",
      "outputs": [
        {
          "components": [
            {
              "internalType": "address",
              "name": "from",
              "type": "address"
            },
            {
              "internalType": "address",
              "name": "receiver",
              "type": "address"
            },
            {
              "internalType": "uint256",
              "name": "amount",
              "type": "uint256"
            },
            {
              "internalType": "string",
              "name": "message",
              "type": "string"
            },
            {
              "internalType": "uint256",
              "name": "timestamp",
              "type": "uint256"
            },
            {
              "internalType": "string",
              "name": "keyword",
              "type": "string"
            }
          ],
          "internalType": "struct Transactions.TransferStruct[]",
          "name": "",
          "type": "tuple[]"
        }
      ],
      "stateMutability": "view",
      "type": "function"
    },
    {
      "inputs": [],
      "name": "getTransactionCount",
      "outputs": [
        {
          "internalType": "uint256",
          "name": "",
          "type": "uint256"
        }
      ],
      "stateMutability": "view",
      "type": "function"
    }
  ],
  "bytecode": "0x608060405234801561001057600080fd5b50610e1e806100206000396000f3fe608060405234801561001057600080fd5b50600436106100415760003560e01c80632e7700f014610046578063cc2d7ead14610064578063f2d30fd114610080575b600080fd5b61004e61009e565b60405161005b91906104b5565b60405180910390f35b61007e600480360381019061007991906106b4565b6100a7565b005b610088610259565b6040516100959190610954565b60405180910390f35b60008054905090565b6000808154809291906100b9906109a5565b919050555060016040518060c001604052803373ffffffffffffffffffffffffffffffffffffffff1681526020018673ffffffffffffffffffffffffffffffffffffffff16815260200185815260200184815260200142815260200183815250908060018154018082558091505060019003906000526020600020906006020160009091909190915060008201518160000160006101000a81548173ffffffffffffffffffffffffffffffffffffffff021916908373ffffffffffffffffffffffffffffffffffffffff16021790555060208201518160010160006101000a81548173ffffffffffffffffffffffffffffffffffffffff021916908373ffffffffffffffffffffffffffffffffffffffff1602179055506040820151816002015560608201518160030190816101ef9190610bf9565b506080820151816004015560a082015181600501908161020f9190610bf9565b5050507f416cfa4330a4565f45c2fd2dd4826a83a37443aba2ce6f79477c7355afac35fa33858585428660405161024b96959493929190610d79565b60405180910390a150505050565b60606001805480602002602001604051908101604052809291908181526020016000905b8282101561049357838290600052602060002090600602016040518060c00160405290816000820160009054906101000a900473ffffffffffffffffffffffffffffffffffffffff1673ffffffffffffffffffffffffffffffffffffffff1673ffffffffffffffffffffffffffffffffffffffff1681526020016001820160009054906101000a900473ffffffffffffffffffffffffffffffffffffffff1673ffffffffffffffffffffffffffffffffffffffff1673ffffffffffffffffffffffffffffffffffffffff1681526020016002820154815260200160038201805461036690610a1c565b80601f016020809104026020016040519081016040528092919081815260200182805461039290610a1c565b80156103df5780601f106103b4576101008083540402835291602001916103df565b820191906000526020600020905b8154815290600101906020018083116103c257829003601f168201915b505050505081526020016004820154815260200160058201805461040290610a1c565b80601f016020809104026020016040519081016040528092919081815260200182805461042e90610a1c565b801561047b5780601f106104505761010080835404028352916020019161047b565b820191906000526020600020905b81548152906001019060200180831161045e57829003601f168201915b5050505050815250508152602001906001019061027d565b50505050905090565b6000819050919050565b6104af8161049c565b82525050565b60006020820190506104ca60008301846104a6565b92915050565b6000604051905090565b600080fd5b600080fd5b600073ffffffffffffffffffffffffffffffffffffffff82169050919050565b600061050f826104e4565b9050919050565b61051f81610504565b811461052a57600080fd5b50565b60008135905061053c81610516565b92915050565b61054b8161049c565b811461055657600080fd5b50565b60008135905061056881610542565b92915050565b600080fd5b600080fd5b6000601f19601f8301169050919050565b7f4e487b7100000000000000000000000000000000000000000000000000000000600052604160045260246000fd5b6105c182610578565b810181811067ffffffffffffffff821117156105e0576105df610589565b5b80604052505050565b60006105f36104d0565b90506105ff82826105b8565b919050565b600067ffffffffffffffff82111561061f5761061e610589565b5b61062882610578565b9050602081019050919050565b82818337600083830152505050565b600061065761065284610604565b6105e9565b90508281526020810184848401111561067357610672610573565b5b61067e848285610635565b509392505050565b600082601f83011261069b5761069a61056e565b5b81356106ab848260208601610644565b91505092915050565b600080600080608085870312156106ce576106cd6104da565b5b60006106dc8782880161052d565b94505060206106ed87828801610559565b935050604085013567ffffffffffffffff81111561070e5761070d6104df565b5b61071a87828801610686565b925050606085013567ffffffffffffffff81111561073b5761073a6104df565b5b61074787828801610686565b91505092959194509250565b600081519050919050565b600082825260208201905092915050565b6000819050602082019050919050565b600061078a826104e4565b9050919050565b61079a8161077f565b82525050565b6107a98161049c565b82525050565b600081519050919050565b600082825260208201905092915050565b60005b838110156107e95780820151818401526020810190506107ce565b60008484015250505050565b6000610800826107af565b61080a81856107ba565b935061081a8185602086016107cb565b61082381610578565b840191505092915050565b600060c0830160008301516108466000860182610791565b5060208301516108596020860182610791565b50604083015161086c60408601826107a0565b506060830151848203606086015261088482826107f5565b915050608083015161089960808601826107a0565b5060a083015184820360a08601526108b182826107f5565b9150508091505092915050565b60006108ca838361082e565b905092915050565b6000602082019050919050565b60006108ea82610753565b6108f4818561075e565b9350836020820285016109068561076f565b8060005b85811015610942578484038952815161092385826108be565b945061092e836108d2565b925060208a0199505060018101905061090a565b50829750879550505050505092915050565b6000602082019050818103600083015261096e81846108df565b905092915050565b7f4e487b7100000000000000000000000000000000000000000000000000000000600052601160045260246000fd5b60006109b08261049c565b91507fffffffffffffffffffffffffffffffffffffffffffffffffffffffffffffffff82036109e2576109e1610976565b5b600182019050919050565b7f4e487b7100000000000000000000000000000000000000000000000000000000600052602260045260246000fd5b60006002820490506001821680610a3457607f821691505b602082108103610a4757610a466109ed565b5b50919050565b60008190508160005260206000209050919050565b60006020601f8301049050919050565b600082821b905092915050565b600060088302610aaf7fffffffffffffffffffffffffffffffffffffffffffffffffffffffffffffffff82610a72565b610ab98683610a72565b95508019841693508086168417925050509392505050565b6000819050919050565b6000610af6610af1610aec8461049c565b610ad1565b61049c565b9050919050565b6000819050919050565b610b1083610adb565b610b24610b1c82610afd565b848454610a7f565b825550505050565b600090565b610b39610b2c565b610b44818484610b07565b505050565b5b81811015610b6857610b5d600082610b31565b600181019050610b4a565b5050565b601f821115610bad57610b7e81610a4d565b610b8784610a62565b81016020851015610b96578190505b610baa610ba285610a62565b830182610b49565b50505b505050565b600082821c905092915050565b6000610bd060001984600802610bb2565b1980831691505092915050565b6000610be98383610bbf565b9150826002028217905092915050565b610c02826107af565b67ffffffffffffffff811115610c1b57610c1a610589565b5b610c258254610a1c565b610c30828285610b6c565b600060209050601f831160018114610c635760008415610c51578287015190505b610c5b8582610bdd565b865550610cc3565b601f198416610c7186610a4d565b60005b82811015610c9957848901518255600182019150602085019450602081019050610c74565b86831015610cb65784890151610cb2601f891682610bbf565b8355505b6001600288020188555050505b505050505050565b610cd48161077f565b82525050565b6000610cf5610cf0610ceb846104e4565b610ad1565b6104e4565b9050919050565b6000610d0782610cda565b9050919050565b6000610d1982610cfc565b9050919050565b610d2981610d0e565b82525050565b600082825260208201905092915050565b6000610d4b826107af565b610d558185610d2f565b9350610d658185602086016107cb565b610d6e81610578565b840191505092915050565b600060c082019050610d8e6000830189610ccb565b610d9b6020830188610d20565b610da860408301876104a6565b8181036060830152610dba8186610d40565b9050610dc960808301856104a6565b81810360a0830152610ddb8184610d40565b905097965050505050505056fea2646970667358221220574a3edf0d737083b95c494bd0a4c347e67725942d0f059dcf76bd43d04d0d9f64736f6c63430008110033",
  "linkReferences": {},
  "deployedLinkReferences": {}
}